:100000000C9462000C948A000C948A000C948A0070
:100010000C948A000C948A000C948A000C948A0038
:100020000C948A000C948A000C948A000C948A0028
:100030000C948A000C948A000C948A000C948A0018
:100040000C945C030C948A000C942A030C94040313
:100050000C948A000C948A000C948A000C948A00F8
:100060000C948A000C948A000000000024002700F1
:100070002A000000000023002600290000000000E4
:10008000250028002B0004040404040404040202D4
:100090000202020203030303030301020408102007
:1000A0004080010204081020010204081020000012
:1000B0000008000201000003040700000000000027
:1000C0000000A60311241FBECFEFD8E0DEBFCDBFD6
:1000D00022E0A6E4B1E001C01D92A034B207E1F72E
:1000E00011E0A0E0B1E0E2EFFCE002C005900D926B
:1000F000A634B107D9F710E0C2E6D0E004C02197DA
:10010000FE010E946C06C136D107C9F70E94E503C3
:100110000C9477060C940000EBE5F1E0A089B1891E
:1001200082E08C93A485B5851C92A685B7858FEC5B
:100130008C93108EA489B58986E08C93A289B389AB
:100140008C9180618C93A289B3898C9188608C9307
:10015000A289B3898C9180688C930288F389E02D01
:1001600080818F7D80830895CF92DF92EF92FF92FE
:100170000F931F93CF93DF936C017A018B01C0E043
:10018000D0E0CE15DF0589F0D8016D918D01D60143
:10019000ED91FC910190F081E02DC6010995892B2C
:1001A00011F47E0102C02196ECCFC701DF91CF91FF
:1001B0001F910F91FF90EF90DF90CF9008950895D9
:1001C00080E090E00895FC01538D448D252F30E0B0
:1001D000842F90E0821B930B541710F0CF96089554
:1001E00001970895FC01918D828D981761F0828DA1
:1001F000DF01A80FB11D5D968C91928D9F5F9F735B
:10020000928F90E008958FEF9FEF0895FC01918DFC
:10021000828D981731F0828DE80FF11D858D90E069
:1002200008958FEF9FEF0895FC01918D228D892F06
:1002300090E0805C9F4F821B91098F7399270895EE
:100240008BE591E00E94140121E0892B09F420E064
:10025000822F0895FC01848DDF01A80FB11DA35AE0
:10026000BF4F2C91848D90E001968F739927848FD6
:10027000A689B7892C93A089B1898C9180648C93CD
:10028000938D848D981306C00288F389E02D8081B8
:100290008F7D80830895EF92FF920F931F93CF93EA
:1002A000DF93EC0181E0888F9B8D8C8D981305C0C6
:1002B000E889F989808185FD24C0F62E0B8D10E038
:1002C0000F5F1F4F0F731127E02E8C8DE8120CC0AB
:1002D0000FB607FCFACFE889F989808185FFF5CF51
:1002E000CE010E942A01F1CF8B8DFE01E80FF11D96
:1002F000E35AFF4FF0820B8FEA89FB89808180628D
:1003000007C0EE89FF896083E889F989808180646C
:10031000808381E090E0DF91CF911F910F91FF905A
:10032000EF900895CF93DF93EC01888D8823C9F077
:10033000EA89FB89808185FD05C0A889B9898C91EE
:1003400086FD0FC00FB607FCF5CF808185FFF2CF89
:10035000A889B9898C9185FFEDCFCE010E942A0131
:10036000E7CFDF91CF91089580E090E0892B29F0CD
:100370000E94200181110C9400000895833081F0C7
:1003800028F4813099F08230A1F008958730A9F0E7
:100390008830B9F08430D1F4809180008F7D03C023
:1003A000809180008F7780938000089584B58F7747
:1003B00002C084B58F7D84BD08958091B0008F7791
:1003C00003C08091B0008F7D8093B0000895CF93DB
:1003D000DF93282F30E0F901E255FF4F8491F901B6
:1003E000E656FF4FD491F901EA57FF4FC491CC2351
:1003F00091F081110E94BE01EC2FF0E0EE0FFF1F83
:10040000EE58FF4FA591B491EC91ED2381E090E07F
:1004100021F480E002C080E090E0DF91CF91089568
:10042000CF93DF9390E0FC01E656FF4F2491FC014F
:10043000EA57FF4F8491882361F190E0880F991F5C
:10044000FC01E859FF4FC591D491FC01E458FF4FDE
:10045000A591B491611109C09FB7F8948881209546
:1004600082238883EC912E230BC0623061F49FB706
:10047000F8943881822F809583238883EC912E2BEA
:100480002C939FBF06C08FB7F894E8812E2B28834A
:100490008FBFDF91CF9108953FB7F89480914B01C2
:1004A00090914C01A0914D01B0914E0126B5A89BB1
:1004B00005C02F3F19F00196A11DB11D3FBFBA2FF6
:1004C000A92F982F8827820F911DA11DB11DBC0156
:1004D000CD0142E0660F771F881F991F4A95D1F71B
:1004E00008952FB7F8946091470170914801809169
:1004F000490190914A012FBF08958F929F92AF9228
:10050000BF92CF92DF92EF92FF926B017C010E942B
:1005100071024B015C01C60ED71EE81EF91E0E9437
:100520007102681579058A059B0528F0C616D7065D
:10053000E806F906A0F7FF90EF90DF90CF90BF900C
:10054000AF909F908F9008956115710579F0FB0130
:1005500001900020E9F73197AF01461B570BDC01F2
:10056000ED91FC910280F381E02D099480E090E010
:1005700008954F925F926F927F92EF92FF920F9346
:100580001F93CF93DF93CDB7DEB7A1970FB6F89443
:10059000DEBF0FBECDBF7C01FA01CB0119A2223014
:1005A00008F42AE08E010F5D1F4F422E512C612C62
:1005B000712CBF01A30192010E944A06F901CA01F0
:1005C000015011096A3014F4605D01C0695CD80102
:1005D0006C93232B242B252B61F7B801C7010E94B4
:1005E000A402A1960FB6F894DEBF0FBECDBFDF9177
:1005F000CF911F910F91FF90EF907F906F905F9040
:100600004F9008950E9472061F920F920FB60F929C
:1006100011242F933F934F935F936F937F938F9307
:100620009F93AF93BF93EF93FF938BE591E00E946D
:100630002A01FF91EF91BF91AF919F918F917F918F
:100640006F915F914F913F912F910F900FBE0F903F
:100650001F9018951F920F920FB60F9211242F938F
:100660008F939F93EF93FF93E0916B01F0916C0157
:100670008081E0917101F091720182FD12C0908140
:10068000809174018F5F8F7320917501821751F0F3
:10069000E0917401F0E0E55AFE4F958F809374016C
:1006A00001C08081FF91EF919F918F912F910F90C9
:1006B0000FBE0F901F9018951F920F920FB60F92BA
:1006C00011242F933F938F939F93AF93BF93809168
:1006D000470190914801A0914901B0914A013091A0
:1006E000460123E0230F2D3720F40196A11DB11DF3
:1006F00005C026E8230F0296A11DB11D20934601D7
:100700008093470190934801A0934901B0934A0117
:1007100080914B0190914C01A0914D01B0914E01FF
:100720000196A11DB11D80934B0190934C01A093A4
:100730004D01B0934E01BF91AF919F918F913F9129
:100740002F910F900FBE0F901F901895EBE5F1E0E1
:100750001382128288EE93E0A0E0B0E08483958358
:10076000A683B78384E091E09183808385EC90E059
:100770009587848784EC90E09787868780EC90E06B
:10078000918B808B81EC90E0938B828B82EC90E05C
:10079000958B848B86EC90E0978B868B118E128ED6
:1007A000138E148EE8EFF1E0168217821086118600
:1007B000128613861486158616861786108A118A65
:1007C000128A138A148A158A0895789484B58260EF
:1007D00084BD84B5816084BD85B5826085BD85B5E5
:1007E000816085BD80916E00816080936E00109263
:1007F00081008091810082608093810080918100DE
:10080000816080938100809180008160809380006E
:100810008091B10084608093B1008091B0008160CC
:100820008093B00080917A00846080937A008091F8
:100830007A00826080937A0080917A008160809350
:100840007A0080917A00806880937A001092C100CB
:1008500010923C0210923D0210923E0210923F0212
:100860001092FA011092FB011092FC011092FD010E
:1008700068EB7BE080E090E00E947D028BE591E0F8
:1008800090933B0280933A020E948C000E94710276
:100890006093FA017093FB018093FC019093FD013A
:1008A00062E171E080913A0290913B020E94A402C1
:1008B0006AE070E080E090E00E947D0281E0809339
:1008C0000E0260E082E00E9410020E948C0024EF81
:1008D000422E55245394612C712CC4E8D3E03FE898
:1008E000232E30E0332E03E210E00E947102672BCA
:1008F000682B692B41F40E947102623071058105F9
:10090000910508F40BC10E94710260935701709326
:1009100058018093590190935A01C0905301D0908F
:100920005401E0905501F09056016C157D058E053F
:100930009F0540F4609353017093540180935501D7
:1009400090935601C0905301D0905401E09055010E
:10095000F09056019B01AC012C193D094E095F092D
:1009600069017A013AEFC316D104E104F10408F4F5
:10097000D5C06093530170935401809355019093B7
:10098000560140920602509207026092080270924D
:10099000090210920A0210920B0210920C0210929D
:1009A0000D028091FE019091FF01A0910002B09193
:1009B00001028093020290930302A0930402B09379
:1009C00005020E9471026093FE017093FF01809303
:1009D0000002909301020E9471026093FA017093E9
:1009E000FB018093FC019093FD010E9471026B0159
:1009F0007C0164E271E080913A0290913B020E9496
:100A0000A4022AE041E050E060E070E080913A0208
:100A100090913B020E94B9026BE271E080913A0230
:100A200090913B020E94A4022AE0B701A6018091A6
:100A30003A0290913B020E94B9026DE271E080910E
:100A40003A0290913B020E94A4028091FE01909193
:100A5000FF01A0910002B0910102B701A601481B5D
:100A6000590B6A0B7B0B2AE080913A0290913B0272
:100A70000E94B9026DE271E080913A0290913B02CE
:100A80000E94A4024091FE015091FF01609100027A
:100A9000709101028091020290910302A0910402E0
:100AA000B0910502481B590B6A0B7B0B2AE0809121
:100AB0003A0290913B020E94B9026FE271E080918C
:100AC0003A0290913B020E94A4020E947102AB0183
:100AD000BC012AE080913A0290913B020E94B90247
:100AE000E0903A02F0903B0261E371E0C7010E949E
:100AF000A40261E271E0C7010E94A40265E070E017
:100B000080E090E00E947D020E9471026093FE01ED
:100B10007093FF0180930002909301020E94710282
:100B2000D0935001C0934F0161E089E00E94100210
:100B3000E7EBF0E08491E3EAF0E0F490F101E49077
:100B4000EE2089F081110E94BE01EE2DF0E0EE0F43
:100B5000FF1FE458FF4FA591B4918FB7F8949C9173
:100B6000F92AFC928FBFC8010197F1F760E089E094
:100B70000E9410020E944C024B015C010E944C0238
:100B8000DC01CB0188199909AA09BB098438934073
:100B9000A105B105B8F40E944C026B017C0189E00B
:100BA0000E94E701892B51F7C818D90880914F019D
:100BB00090915001C816D90608F7D0925001C09202
:100BC0004F01DCCFE0904F01F090500182E00E9495
:100BD000E7014C01990FAA08BB08B7FE14C0E091C9
:100BE0005B01F0915C010190F081E02D6DE28BE5FD
:100BF00091E0099544275527BA01481959096A090E
:100C00007B092AE003C02AE0B501A4018BE591E04D
:100C10000E94B90261E271E08BE591E00E94A402BA
:100C20002DEBE21622E0F20634F468E371E08BE586
:100C300091E00E94A40261E271E08BE591E00E94E4
:100C4000A4020E944C024B015C018AEFC82ED12CF9
:100C5000E12CF12C0E944C02DC01CB01881999098E
:100C6000AA09BB09883E9340A105B10558F031E0BF
:100C7000C31AD108E108F10848EE840E43E0941E3F
:100C8000A11CB11CC114D104E104F10419F70E94A4
:100C9000B4012BCEA1E21A2EAA1BBB1BFD010DC075
:100CA000AA1FBB1FEE1FFF1FA217B307E407F5071C
:100CB00020F0A21BB30BE40BF50B661F771F881FF8
:100CC000991F1A9469F760957095809590959B018E
:100CD000AC01BD01CF010895EE0FFF1F0590F49107
:100CE000E02D099481E090E0F8940C947706F89454
:020CF000FFCF34
:100CF200000000004B01B400E30092011401F20075
:100D02000601564D4450565F317C315F564D44507A
:100D1200560D0A00564D4450455F003A323A007C67
:100D2200005F564D44504500776869746521212162
:060D320021212121000037
:00000001FF
